{
  "contractName": "RNG",
  "abi": [
    {
      "constant": true,
      "inputs": [
        {
          "name": "",
          "type": "uint256"
        }
      ],
      "name": "items",
      "outputs": [
        {
          "name": "",
          "type": "string"
        }
      ],
      "payable": false,
      "stateMutability": "view",
      "type": "function"
    },
    {
      "constant": true,
      "inputs": [],
      "name": "administrator",
      "outputs": [
        {
          "name": "",
          "type": "address"
        }
      ],
      "payable": false,
      "stateMutability": "view",
      "type": "function"
    },
    {
      "constant": true,
      "inputs": [
        {
          "name": "",
          "type": "uint256"
        }
      ],
      "name": "percentages",
      "outputs": [
        {
          "name": "",
          "type": "uint256"
        }
      ],
      "payable": false,
      "stateMutability": "view",
      "type": "function"
    },
    {
      "inputs": [],
      "payable": false,
      "stateMutability": "nonpayable",
      "type": "constructor"
    },
    {
      "constant": true,
      "inputs": [],
      "name": "drawItem",
      "outputs": [
        {
          "name": "item",
          "type": "string"
        }
      ],
      "payable": false,
      "stateMutability": "view",
      "type": "function"
    }
  ],
  "bytecode": "0x600660e09081527f636f6d6d6f6e000000000000000000000000000000000000000000000000000061010052608090815260046101209081527f72617265000000000000000000000000000000000000000000000000000000006101405260a0526101a060405260096101609081527f76657279207261726500000000000000000000000000000000000000000000006101805260c0526100a49060019060036100f6565b5060408051606081018252603c8152601e6020820152600a918101919091526100d1906002906003610153565b503480156100de57600080fd5b50600080546001600160a01b03191633179055610294565b828054828255906000526020600020908101928215610143579160200282015b82811115610143578251805161013391849160209091019061019f565b5091602001919060010190610116565b5061014f92915061020d565b5090565b828054828255906000526020600020908101928215610193579160200282015b82811115610193578251829060ff16905591602001919060010190610173565b5061014f929150610233565b828054600181600116156101000203166002900490600052602060002090601f016020900481019282601f106101e057805160ff1916838001178555610193565b82800160010185558215610193579182015b828111156101935782518255916020019190600101906101f2565b61023091905b8082111561014f576000610227828261024d565b50600101610213565b90565b61023091905b8082111561014f5760008155600101610239565b50805460018160011615610100020316600290046000825580601f106102735750610291565b601f0160209004906000526020600020908101906102919190610233565b50565b61048a806102a36000396000f3fe608060405234801561001057600080fd5b506004361061004c5760003560e01c8063bfb231d214610051578063f53d0a8e146100e3578063f790139014610107578063f88583861461010f575b600080fd5b61006e6004803603602081101561006757600080fd5b503561013e565b6040805160208082528351818301528351919283929083019185019080838360005b838110156100a8578181015183820152602001610090565b50505050905090810190601f1680156100d55780820380516001836020036101000a031916815260200191505b509250505060405180910390f35b6100eb6101e4565b604080516001600160a01b039092168252519081900360200190f35b61006e6101f3565b61012c6004803603602081101561012557600080fd5b50356103a0565b60408051918252519081900360200190f35b6001818154811061014b57fe5b600091825260209182902001805460408051601f60026000196101006001871615020190941693909304928301859004850281018501909152818152935090918301828280156101dc5780601f106101b1576101008083540402835291602001916101dc565b820191906000526020600020905b8154815290600101906020018083116101bf57829003601f168201915b505050505081565b6000546001600160a01b031681565b6000546060906001600160a01b0316331461023f5760405162461bcd60e51b815260040180806020018281038252602f8152602001806103ef602f913960400191505060405180910390fd5b600254600154146102815760405162461bcd60e51b815260040180806020018281038252603881526020018061041e6038913960400191505060405180910390fd5b600061028b6103be565b60ff1690506000805b600254811015610399578183101580156102c65750600281815481106102b657fe5b9060005260206000200154820183105b1561037557600181815481106102d857fe5b600091825260209182902001805460408051601f60026000196101006001871615020190941693909304928301859004850281018501909152818152928301828280156103665780601f1061033b57610100808354040283529160200191610366565b820191906000526020600020905b81548152906001019060200180831161034957829003601f168201915b5050505050935050505061039d565b6002818154811061038257fe5b906000526020600020015482019150600101610294565b5050505b90565b600281815481106103ad57fe5b600091825260209091200154905081565b6040805144602080830191909152428284015282518083038401815260609092019092528051910120606490069056fe4f6e6c792074686520524e472041646d696e6973747261746f722063616e20647261772061206e6577206974656d2150657263656e7461676573206172726179206973206e6f74207468652073616d65206c656e677468206173204974656d7320617272617921a265627a7a72305820c606824663e9edbd039b83b11830c567c43e07066acc94a77793307f89ae37d864736f6c634300050a0032",
  "source": "pragma solidity  >= 0.4.0 < 0.7.0;\n\n/**\n * @author Jack Gilcrest, Arthur Carvalho\n * Date: 07.17.2019\n * RNG Game Demonstration\n */\ncontract RNG {\n    \n    address public administrator;\n    string[] public items = [\"common\", \"rare\", \"very rare\"];\n    uint[] public percentages = [60, 30, 10];\n    \n    modifier onlyAdministrator() {\n        require(msg.sender == administrator, \"Only the RNG Administrator can draw a new item!\");\n        _;\n    }\n\n    constructor() public {\n        administrator = msg.sender;\n    }\n\n\n    /**\n     * Generate a new random item and return it as a string\n     * Uses constant arrays percentages and items\n     * @return item string the randomly generated item\n     */\n    function drawItem() public view onlyAdministrator() returns (string memory item) {\n        require(items.length == percentages.length, \"Percentages array is not the same length as Items array!\");\n\n        uint randomValue   = randomNumberGeneration();\n        uint lowerBoundary = 0;\n        for (uint i=0; i < percentages.length; i++) {\n            if (randomValue >= lowerBoundary && randomValue < lowerBoundary + percentages[i])\n                return items[i];\n            else\n                lowerBoundary = lowerBoundary + percentages[i];\n        }\n    }\n    \n    /**\n     * Generate a pseudo-random number by encoding the block difficulty and timestamp\n     * Generated number is bound in range [0-99]\n     * @return number uint8 value generated pseudo-randomly\n     */\n    function randomNumberGeneration() private view returns (uint8 number) {\n        uint generated = uint(keccak256(abi.encodePacked(block.difficulty, block.timestamp)));\n        number = uint8(generated % 100);\n    }\n}",
  "sourcePath": "/home/jack/RNG-MUBC/contracts/RNG.sol",
  "compiler": {
    "name": "solc",
    "version": "0.5.10+commit.5a6ea5b1.Emscripten.clang"
  },
  "schemaVersion": "3.0.11",
  "updatedAt": "2019-07-18T00:36:17.426Z",
  "devdoc": {
    "author": "Jack Gilcrest, Arthur Carvalho Date: 07.17.2019 RNG Game Demonstration",
    "methods": {
      "drawItem()": {
        "return": "item string the randomly generated item"
      }
    }
  },
  "userdoc": {
    "methods": {
      "drawItem()": {
        "notice": "Generate a new random item and return it as a string Uses constant arrays percentages and items"
      }
    }
  }
}